{
  "transactions": [
    {
      "hash": "0xba73c79b7de47adc1a6f8594783f0e25ddaf8bd62ec422e38689543b5c4f7bf2",
      "transactionType": "CALL",
      "contractName": null,
      "contractAddress": "0x779877a7b0d9e8603169ddbd7836e478b4624789",
      "function": "transferAndCall(address,uint256,bytes)",
      "arguments": [
        "0x9DdfaCa8183c41ad55329BdeeD9F6A8d53168B1B",
        "3000000000000000000",
        "0x561f3f3d8d275bdcd6c78c8965462dee502ce019ac3371700687771e2801c504"
      ],
      "transaction": {
        "from": "0xc97ca114c952ea557f49ef605c0f3864c794b373",
        "to": "0x779877a7b0d9e8603169ddbd7836e478b4624789",
        "gas": "0x14cbb",
        "value": "0x0",
        "input": "0x4000aea00000000000000000000000009ddfaca8183c41ad55329bdeed9f6a8d53168b1b00000000000000000000000000000000000000000000000029a2241af62c000000000000000000000000000000000000000000000000000000000000000000600000000000000000000000000000000000000000000000000000000000000020561f3f3d8d275bdcd6c78c8965462dee502ce019ac3371700687771e2801c504",
        "nonce": "0x54",
        "chainId": "0xaa36a7"
      },
      "additionalContracts": [],
      "isFixedGasLimit": false
    }
  ],
  "receipts": [
    {
      "status": "0x1",
      "cumulativeGasUsed": "0xbe219f",
      "logs": [
        {
          "address": "0x779877a7b0d9e8603169ddbd7836e478b4624789",
          "topics": [
            "0xddf252ad1be2c89b69c2b068fc378daa952ba7f163c4a11628f55a4df523b3ef",
            "0x000000000000000000000000c97ca114c952ea557f49ef605c0f3864c794b373",
            "0x0000000000000000000000009ddfaca8183c41ad55329bdeed9f6a8d53168b1b"
          ],
          "data": "0x00000000000000000000000000000000000000000000000029a2241af62c0000",
          "blockHash": "0xc5c3493f8841def4b065d340b0654fae69240655be5276a7dc4d48526cf798f9",
          "blockNumber": "0x63d0b4",
          "transactionHash": "0xba73c79b7de47adc1a6f8594783f0e25ddaf8bd62ec422e38689543b5c4f7bf2",
          "transactionIndex": "0x41",
          "logIndex": "0xd3",
          "removed": false
        },
        {
          "address": "0x779877a7b0d9e8603169ddbd7836e478b4624789",
          "topics": [
            "0xe19260aff97b920c7df27010903aeb9c8d2be5d310a2c67824cf3f15396e4c16",
            "0x000000000000000000000000c97ca114c952ea557f49ef605c0f3864c794b373",
            "0x0000000000000000000000009ddfaca8183c41ad55329bdeed9f6a8d53168b1b"
          ],
          "data": "0x00000000000000000000000000000000000000000000000029a2241af62c000000000000000000000000000000000000000000000000000000000000000000400000000000000000000000000000000000000000000000000000000000000020561f3f3d8d275bdcd6c78c8965462dee502ce019ac3371700687771e2801c504",
          "blockHash": "0xc5c3493f8841def4b065d340b0654fae69240655be5276a7dc4d48526cf798f9",
          "blockNumber": "0x63d0b4",
          "transactionHash": "0xba73c79b7de47adc1a6f8594783f0e25ddaf8bd62ec422e38689543b5c4f7bf2",
          "transactionIndex": "0x41",
          "logIndex": "0xd4",
          "removed": false
        },
        {
          "address": "0x9ddfaca8183c41ad55329bdeed9f6a8d53168b1b",
          "topics": [
            "0x1ced9348ff549fceab2ac57cd3a9de38edaaab274b725ee82c23e8fc8c4eec7a",
            "0x561f3f3d8d275bdcd6c78c8965462dee502ce019ac3371700687771e2801c504"
          ],
          "data": "0x000000000000000000000000000000000000000000000000b469471f80140000000000000000000000000000000000000000000000000000de0b6b3a76400000",
          "blockHash": "0xc5c3493f8841def4b065d340b0654fae69240655be5276a7dc4d48526cf798f9",
          "blockNumber": "0x63d0b4",
          "transactionHash": "0xba73c79b7de47adc1a6f8594783f0e25ddaf8bd62ec422e38689543b5c4f7bf2",
          "transactionIndex": "0x41",
          "logIndex": "0xd5",
          "removed": false
        }
      ],
      "logsBloom": "0x00000004000000000000000000000000000000000020000000000000020000000000000000000000000000000000000010000000000000000000000000000000000000000000000000000008000002000000000000000010000020000020000008000000000000000000000000000000000000000000000000000010000040000000000000000000000000010080800000000020000000000004000000000000000000000020000000000000010000000000000000000000000004000000000000000002000000000000000000000000000000000000000100000000000000000010000000000000800000000000000000000000000000000000000000000000",
      "type": "0x2",
      "transactionHash": "0xba73c79b7de47adc1a6f8594783f0e25ddaf8bd62ec422e38689543b5c4f7bf2",
      "transactionIndex": "0x41",
      "blockHash": "0xc5c3493f8841def4b065d340b0654fae69240655be5276a7dc4d48526cf798f9",
      "blockNumber": "0x63d0b4",
      "gasUsed": "0xf0e5",
      "effectiveGasPrice": "0x1d5945fbf",
      "from": "0xc97ca114c952ea557f49ef605c0f3864c794b373",
      "to": "0x779877a7b0d9e8603169ddbd7836e478b4624789",
      "contractAddress": null
    }
  ],
  "libraries": [],
  "pending": [],
  "returns": {},
  "timestamp": 1724221058,
  "chain": 11155111,
  "commit": "55f405e"
}