{
  "transactions": [
    {
      "hash": "0xdd7f1820f85245b240af4f6cc480754021dd4f5dafbb3c1df3c34cdd3ba3c961",
      "transactionType": "CALL",
      "contractName": null,
      "contractAddress": "0x779877a7b0d9e8603169ddbd7836e478b4624789",
      "function": "transferAndCall(address,uint256,bytes)",
      "arguments": [
        "0x9DdfaCa8183c41ad55329BdeeD9F6A8d53168B1B",
        "3000000000000000000",
        "0x561f3f3d8d275bdcd6c78c8965462dee502ce019ac3371700687771e2801c504"
      ],
      "transaction": {
        "from": "0xc97ca114c952ea557f49ef605c0f3864c794b373",
        "to": "0x779877a7b0d9e8603169ddbd7836e478b4624789",
        "gas": "0x14cbb",
        "value": "0x0",
        "input": "0x4000aea00000000000000000000000009ddfaca8183c41ad55329bdeed9f6a8d53168b1b00000000000000000000000000000000000000000000000029a2241af62c000000000000000000000000000000000000000000000000000000000000000000600000000000000000000000000000000000000000000000000000000000000020561f3f3d8d275bdcd6c78c8965462dee502ce019ac3371700687771e2801c504",
        "nonce": "0x50",
        "chainId": "0xaa36a7"
      },
      "additionalContracts": [],
      "isFixedGasLimit": false
    }
  ],
  "receipts": [
    {
      "status": "0x1",
      "cumulativeGasUsed": "0x105b267",
      "logs": [
        {
          "address": "0x779877a7b0d9e8603169ddbd7836e478b4624789",
          "topics": [
            "0xddf252ad1be2c89b69c2b068fc378daa952ba7f163c4a11628f55a4df523b3ef",
            "0x000000000000000000000000c97ca114c952ea557f49ef605c0f3864c794b373",
            "0x0000000000000000000000009ddfaca8183c41ad55329bdeed9f6a8d53168b1b"
          ],
          "data": "0x00000000000000000000000000000000000000000000000029a2241af62c0000",
          "blockHash": "0xff202460ddb7132cf4cca9aac8ee432023cacd62aae549a4db7eb3af943013ee",
          "blockNumber": "0x63c033",
          "transactionHash": "0xdd7f1820f85245b240af4f6cc480754021dd4f5dafbb3c1df3c34cdd3ba3c961",
          "transactionIndex": "0x6d",
          "logIndex": "0xef",
          "removed": false
        },
        {
          "address": "0x779877a7b0d9e8603169ddbd7836e478b4624789",
          "topics": [
            "0xe19260aff97b920c7df27010903aeb9c8d2be5d310a2c67824cf3f15396e4c16",
            "0x000000000000000000000000c97ca114c952ea557f49ef605c0f3864c794b373",
            "0x0000000000000000000000009ddfaca8183c41ad55329bdeed9f6a8d53168b1b"
          ],
          "data": "0x00000000000000000000000000000000000000000000000029a2241af62c000000000000000000000000000000000000000000000000000000000000000000400000000000000000000000000000000000000000000000000000000000000020561f3f3d8d275bdcd6c78c8965462dee502ce019ac3371700687771e2801c504",
          "blockHash": "0xff202460ddb7132cf4cca9aac8ee432023cacd62aae549a4db7eb3af943013ee",
          "blockNumber": "0x63c033",
          "transactionHash": "0xdd7f1820f85245b240af4f6cc480754021dd4f5dafbb3c1df3c34cdd3ba3c961",
          "transactionIndex": "0x6d",
          "logIndex": "0xf0",
          "removed": false
        },
        {
          "address": "0x9ddfaca8183c41ad55329bdeed9f6a8d53168b1b",
          "topics": [
            "0x1ced9348ff549fceab2ac57cd3a9de38edaaab274b725ee82c23e8fc8c4eec7a",
            "0x561f3f3d8d275bdcd6c78c8965462dee502ce019ac3371700687771e2801c504"
          ],
          "data": "0x00000000000000000000000000000000000000000000000029a2241af62c000000000000000000000000000000000000000000000000000053444835ec580000",
          "blockHash": "0xff202460ddb7132cf4cca9aac8ee432023cacd62aae549a4db7eb3af943013ee",
          "blockNumber": "0x63c033",
          "transactionHash": "0xdd7f1820f85245b240af4f6cc480754021dd4f5dafbb3c1df3c34cdd3ba3c961",
          "transactionIndex": "0x6d",
          "logIndex": "0xf1",
          "removed": false
        }
      ],
      "logsBloom": "0x00000004000000000000000000000000000000000020000000000000020000000000000000000000000000000000000010000000000000000000000000000000000000000000000000000008000002000000000000000010000020000020000008000000000000000000000000000000000000000000000000000010000040000000000000000000000000010080800000000020000000000004000000000000000000000020000000000000010000000000000000000000000004000000000000000002000000000000000000000000000000000000000100000000000000000010000000000000800000000000000000000000000000000000000000000000",
      "type": "0x2",
      "transactionHash": "0xdd7f1820f85245b240af4f6cc480754021dd4f5dafbb3c1df3c34cdd3ba3c961",
      "transactionIndex": "0x6d",
      "blockHash": "0xff202460ddb7132cf4cca9aac8ee432023cacd62aae549a4db7eb3af943013ee",
      "blockNumber": "0x63c033",
      "gasUsed": "0xf0e5",
      "effectiveGasPrice": "0x263221dcb",
      "from": "0xc97ca114c952ea557f49ef605c0f3864c794b373",
      "to": "0x779877a7b0d9e8603169ddbd7836e478b4624789",
      "contractAddress": null
    }
  ],
  "libraries": [],
  "pending": [],
  "returns": {},
  "timestamp": 1724163856,
  "chain": 11155111,
  "commit": "a3fd872"
}