{
  "transactions": [
    {
      "hash": "0x6938361ff1e899e3a762c9a9550feff22080111acca6ccfa455e8be80948913f",
      "transactionType": "CALL",
      "contractName": null,
      "contractAddress": "0x1aa2eb8729d942af91fda454ddf1552905983b56",
      "function": "mintNft(string)",
      "arguments": [
        "\"ipfs://bafybeig37ioir76s7mg5oobetncojcm3c3hxasyd4rvid4jqhy4gkaheg4/?filename=0-PUG.json\""
      ],
      "transaction": {
        "from": "0xc97ca114c952ea557f49ef605c0f3864c794b373",
        "to": "0x1aa2eb8729d942af91fda454ddf1552905983b56",
        "gas": "0x3d623",
        "value": "0x0",
        "input": "0xda86f4a900000000000000000000000000000000000000000000000000000000000000200000000000000000000000000000000000000000000000000000000000000057697066733a2f2f62616679626569673337696f6972373673376d67356f6f6265746e636f6a636d3363336878617379643472766964346a71687934676b61686567342f3f66696c656e616d653d302d5055472e6a736f6e000000000000000000",
        "nonce": "0x60",
        "chainId": "0xaa36a7"
      },
      "additionalContracts": [],
      "isFixedGasLimit": false
    }
  ],
  "receipts": [
    {
      "status": "0x1",
      "cumulativeGasUsed": "0x11674bd",
      "logs": [
        {
          "address": "0x1aa2eb8729d942af91fda454ddf1552905983b56",
          "topics": [
            "0xddf252ad1be2c89b69c2b068fc378daa952ba7f163c4a11628f55a4df523b3ef",
            "0x0000000000000000000000000000000000000000000000000000000000000000",
            "0x000000000000000000000000c97ca114c952ea557f49ef605c0f3864c794b373",
            "0x0000000000000000000000000000000000000000000000000000000000000000"
          ],
          "data": "0x",
          "blockHash": "0x64699f928efd7534500c62e8915912eaec0a528f8bc525abbe97afd598775db8",
          "blockNumber": "0x643961",
          "transactionHash": "0x6938361ff1e899e3a762c9a9550feff22080111acca6ccfa455e8be80948913f",
          "transactionIndex": "0x3c",
          "logIndex": "0xe4",
          "removed": false
        }
      ],
      "logsBloom": "0x00000000000000000000000000000000000000000000000000000000000000000000000000000000000000000000000000000000000000000000000000000000000000000000000000000008000002000004000000000000000000000000000000000000020000000000000000000800000000000000000000000010000000000000000000000000000004000080000000000000000000000004000000000000000000000400000000000000000000000000000000000000000000000000000000000002000000000000000000000000000000000000000000000000000020000000000000000000000000000000000000000000000000000000000000000000",
      "type": "0x2",
      "transactionHash": "0x6938361ff1e899e3a762c9a9550feff22080111acca6ccfa455e8be80948913f",
      "transactionIndex": "0x3c",
      "blockHash": "0x64699f928efd7534500c62e8915912eaec0a528f8bc525abbe97afd598775db8",
      "blockNumber": "0x643961",
      "gasUsed": "0x2c70e",
      "effectiveGasPrice": "0x18e8f0518",
      "from": "0xc97ca114c952ea557f49ef605c0f3864c794b373",
      "to": "0x1aa2eb8729d942af91fda454ddf1552905983b56",
      "contractAddress": null
    }
  ],
  "libraries": [],
  "pending": [],
  "returns": {},
  "timestamp": 1724585892,
  "chain": 11155111,
  "commit": "047c4b9"
}