{
  "transactions": [
    {
      "hash": "0x2632eaff53f33a61f00d5f2edf54b1c512f7d5f9324b4b96f492cc0ef3bdb592",
      "transactionType": "CALL",
      "contractName": null,
      "contractAddress": "0x801a4168a67184776f5d8f609ea062d220937623",
      "function": "mintNft(string)",
      "arguments": [
        "\"ipfs://QmWfVY9y3xjsixTgbd9AorQxH7VtMpzfx2HaWtsoUYecaX?filename=data.txt\""
      ],
      "transaction": {
        "from": "0xc97ca114c952ea557f49ef605c0f3864c794b373",
        "to": "0x801a4168a67184776f5d8f609ea062d220937623",
        "gas": "0x31c94",
        "value": "0x0",
        "input": "0xda86f4a900000000000000000000000000000000000000000000000000000000000000200000000000000000000000000000000000000000000000000000000000000047697066733a2f2f516d57665659397933786a7369785467626439416f725178483756744d707a66783248615774736f5559656361583f66696c656e616d653d646174612e74787400000000000000000000000000000000000000000000000000",
        "nonce": "0x5c",
        "chainId": "0xaa36a7"
      },
      "additionalContracts": [],
      "isFixedGasLimit": false
    }
  ],
  "receipts": [
    {
      "status": "0x1",
      "cumulativeGasUsed": "0xb89326",
      "logs": [
        {
          "address": "0x801a4168a67184776f5d8f609ea062d220937623",
          "topics": [
            "0xddf252ad1be2c89b69c2b068fc378daa952ba7f163c4a11628f55a4df523b3ef",
            "0x0000000000000000000000000000000000000000000000000000000000000000",
            "0x000000000000000000000000c97ca114c952ea557f49ef605c0f3864c794b373",
            "0x0000000000000000000000000000000000000000000000000000000000000002"
          ],
          "data": "0x",
          "blockHash": "0xc99b655b92dbfcd7c39aca5694da22bbf932a282cc7270e7679517c6066171de",
          "blockNumber": "0x641def",
          "transactionHash": "0x2632eaff53f33a61f00d5f2edf54b1c512f7d5f9324b4b96f492cc0ef3bdb592",
          "transactionIndex": "0x54",
          "logIndex": "0x7d",
          "removed": false
        }
      ],
      "logsBloom": "0x04000000000000000000000000000000000000000000000000000000000000000000000000000000000000000000000000000001000000000000000000000000000000000000000000000008000002000000000000000000000000000000000000000000020000000000000000000800000000000000000000000010000000000000000000000000000000000080000000000000000000000004000000000000000000000000000000000100000000000000000000000000000000000000000000000002000000000002000000000000000000000000000000000000000020800000000000000000000000000000000000000000008000000000000000000000",
      "type": "0x2",
      "transactionHash": "0x2632eaff53f33a61f00d5f2edf54b1c512f7d5f9324b4b96f492cc0ef3bdb592",
      "transactionIndex": "0x54",
      "blockHash": "0xc99b655b92dbfcd7c39aca5694da22bbf932a282cc7270e7679517c6066171de",
      "blockNumber": "0x641def",
      "gasUsed": "0x240b6",
      "effectiveGasPrice": "0x673a96fdc",
      "from": "0xc97ca114c952ea557f49ef605c0f3864c794b373",
      "to": "0x801a4168a67184776f5d8f609ea062d220937623",
      "contractAddress": null
    }
  ],
  "libraries": [],
  "pending": [],
  "returns": {},
  "timestamp": 1724489585,
  "chain": 11155111,
  "commit": "047c4b9"
}