{
  "transactions": [
    {
      "hash": "0xe109f81dd799f0e554d3495cb064b0bb3f39894194a88728adad9cd36df1d88c",
      "transactionType": "CALL",
      "contractName": null,
      "contractAddress": "0x801a4168a67184776f5d8f609ea062d220937623",
      "function": "mintNft(string)",
      "arguments": [
        "\"ipfs://QmWfVY9y3xjsixTgbd9AorQxH7VtMpzfx2HaWtsoUYecaX?filename=data.txt\""
      ],
      "transaction": {
        "from": "0xc97ca114c952ea557f49ef605c0f3864c794b373",
        "to": "0x801a4168a67184776f5d8f609ea062d220937623",
        "gas": "0x31c94",
        "value": "0x0",
        "input": "0xda86f4a900000000000000000000000000000000000000000000000000000000000000200000000000000000000000000000000000000000000000000000000000000047697066733a2f2f516d57665659397933786a7369785467626439416f725178483756744d707a66783248615774736f5559656361583f66696c656e616d653d646174612e74787400000000000000000000000000000000000000000000000000",
        "nonce": "0x5b",
        "chainId": "0xaa36a7"
      },
      "additionalContracts": [],
      "isFixedGasLimit": false
    }
  ],
  "receipts": [
    {
      "status": "0x1",
      "cumulativeGasUsed": "0x1129072",
      "logs": [
        {
          "address": "0x801a4168a67184776f5d8f609ea062d220937623",
          "topics": [
            "0xddf252ad1be2c89b69c2b068fc378daa952ba7f163c4a11628f55a4df523b3ef",
            "0x0000000000000000000000000000000000000000000000000000000000000000",
            "0x000000000000000000000000c97ca114c952ea557f49ef605c0f3864c794b373",
            "0x0000000000000000000000000000000000000000000000000000000000000001"
          ],
          "data": "0x",
          "blockHash": "0xea542acb96c914917a97390b7c2e5988962fbe0a748464b3cdf7f20c4897a51e",
          "blockNumber": "0x641dd1",
          "transactionHash": "0xe109f81dd799f0e554d3495cb064b0bb3f39894194a88728adad9cd36df1d88c",
          "transactionIndex": "0x2c",
          "logIndex": "0x195",
          "removed": false
        }
      ],
      "logsBloom": "0x00000000000000000000000000000000000000000000000000000000000000000000000000000000000000000000000000000001000000000000000000040000000000000000000000000008000002000000000000040000000000000000000000000000020000000000000000000800000000000000000000000010000000000000000000000000000000000080000000000000000000000004000000000000000000000000000000000000000000000000000000000000000000000000000000000002000000000002000000000000000000000000000000000000000060800000000000000000000000000000000000000000000000000000000000000000",
      "type": "0x2",
      "transactionHash": "0xe109f81dd799f0e554d3495cb064b0bb3f39894194a88728adad9cd36df1d88c",
      "transactionIndex": "0x2c",
      "blockHash": "0xea542acb96c914917a97390b7c2e5988962fbe0a748464b3cdf7f20c4897a51e",
      "blockNumber": "0x641dd1",
      "gasUsed": "0x240b6",
      "effectiveGasPrice": "0x42f7b3b48",
      "from": "0xc97ca114c952ea557f49ef605c0f3864c794b373",
      "to": "0x801a4168a67184776f5d8f609ea062d220937623",
      "contractAddress": null
    }
  ],
  "libraries": [],
  "pending": [],
  "returns": {},
  "timestamp": 1724489127,
  "chain": 11155111,
  "commit": "047c4b9"
}