{
  "transactions": [
    {
      "hash": "0x98bc8e1dca1c7f08a1f68a4c62cc398769d743a08ae1352eb069165ac030c986",
      "transactionType": "CALL",
      "contractName": null,
      "contractAddress": "0x801a4168a67184776f5d8f609ea062d220937623",
      "function": "mintNft(string)",
      "arguments": [
        "\"ipfs://QmSsYRx3LpDAb1GZQm7zZ1AuHZjfbPkD6J7s9r41xu1mf8?filename=pug.png\""
      ],
      "transaction": {
        "from": "0xc97ca114c952ea557f49ef605c0f3864c794b373",
        "to": "0x801a4168a67184776f5d8f609ea062d220937623",
        "gas": "0x34b5e",
        "value": "0x0",
        "input": "0xda86f4a900000000000000000000000000000000000000000000000000000000000000200000000000000000000000000000000000000000000000000000000000000046697066733a2f2f516d5373595278334c7044416231475a516d377a5a314175485a6a6662506b44364a3773397234317875316d66383f66696c656e616d653d7075672e706e670000000000000000000000000000000000000000000000000000",
        "nonce": "0x5e",
        "chainId": "0xaa36a7"
      },
      "additionalContracts": [],
      "isFixedGasLimit": false
    }
  ],
  "receipts": [
    {
      "status": "0x1",
      "cumulativeGasUsed": "0xafbc50",
      "logs": [
        {
          "address": "0x801a4168a67184776f5d8f609ea062d220937623",
          "topics": [
            "0xddf252ad1be2c89b69c2b068fc378daa952ba7f163c4a11628f55a4df523b3ef",
            "0x0000000000000000000000000000000000000000000000000000000000000000",
            "0x000000000000000000000000c97ca114c952ea557f49ef605c0f3864c794b373",
            "0x0000000000000000000000000000000000000000000000000000000000000004"
          ],
          "data": "0x",
          "blockHash": "0x4a2bcb9ee18328bf4f0bdb858f2650e02d0526ca4549fc567e81d63ccbfd8bd2",
          "blockNumber": "0x641e74",
          "transactionHash": "0x98bc8e1dca1c7f08a1f68a4c62cc398769d743a08ae1352eb069165ac030c986",
          "transactionIndex": "0x56",
          "logIndex": "0x87",
          "removed": false
        }
      ],
      "logsBloom": "0x00000000000000000000000000000000000000000000000000000000000000000000000000000000000000000000000000000001000000000000000000000000000000000000000000000008000002000000000000000000000000000000000008000000020000000000000000000800000000000000000000000010000000000000000000000000000000000080000000000000000000000004000000000000000000000000000000000000000000000000000000000000002000000000000000000002000000000002000000000000000000008000000000000000000020800000000000000000000000000000000000000000000000000000000000000000",
      "type": "0x2",
      "transactionHash": "0x98bc8e1dca1c7f08a1f68a4c62cc398769d743a08ae1352eb069165ac030c986",
      "transactionIndex": "0x56",
      "blockHash": "0x4a2bcb9ee18328bf4f0bdb858f2650e02d0526ca4549fc567e81d63ccbfd8bd2",
      "blockNumber": "0x641e74",
      "gasUsed": "0x240aa",
      "effectiveGasPrice": "0x3ab5caddd",
      "from": "0xc97ca114c952ea557f49ef605c0f3864c794b373",
      "to": "0x801a4168a67184776f5d8f609ea062d220937623",
      "contractAddress": null
    }
  ],
  "libraries": [],
  "pending": [],
  "returns": {},
  "timestamp": 1724491323,
  "chain": 11155111,
  "commit": "047c4b9"
}