{
  "transactions": [
    {
      "hash": "0xbbb4480e974a2a9e60fd183bbd591c0f4c5437da520fa6137c410dea672e6035",
      "transactionType": "CALL",
      "contractName": null,
      "contractAddress": "0x801a4168a67184776f5d8f609ea062d220937623",
      "function": "mintNft(string)",
      "arguments": [
        "\"ipfs://QmWfVY9y3xjsixTgbd9AorQxH7VtMpzfx2HaWtsoUYecaX?filename=data.txt\""
      ],
      "transaction": {
        "from": "0xc97ca114c952ea557f49ef605c0f3864c794b373",
        "to": "0x801a4168a67184776f5d8f609ea062d220937623",
        "gas": "0x3d51a",
        "value": "0x0",
        "input": "0xda86f4a900000000000000000000000000000000000000000000000000000000000000200000000000000000000000000000000000000000000000000000000000000047697066733a2f2f516d57665659397933786a7369785467626439416f725178483756744d707a66783248615774736f5559656361583f66696c656e616d653d646174612e74787400000000000000000000000000000000000000000000000000",
        "nonce": "0x5a",
        "chainId": "0xaa36a7"
      },
      "additionalContracts": [],
      "isFixedGasLimit": false
    }
  ],
  "receipts": [
    {
      "status": "0x1",
      "cumulativeGasUsed": "0xf4516f",
      "logs": [
        {
          "address": "0x801a4168a67184776f5d8f609ea062d220937623",
          "topics": [
            "0xddf252ad1be2c89b69c2b068fc378daa952ba7f163c4a11628f55a4df523b3ef",
            "0x0000000000000000000000000000000000000000000000000000000000000000",
            "0x000000000000000000000000c97ca114c952ea557f49ef605c0f3864c794b373",
            "0x0000000000000000000000000000000000000000000000000000000000000000"
          ],
          "data": "0x",
          "blockHash": "0x40b80db2059520273cf0a11639a2b70f8b219243bcacb7010b77c515f3d9d36a",
          "blockNumber": "0x640afe",
          "transactionHash": "0xbbb4480e974a2a9e60fd183bbd591c0f4c5437da520fa6137c410dea672e6035",
          "transactionIndex": "0x3a",
          "logIndex": "0xd4",
          "removed": false
        }
      ],
      "logsBloom": "0x00000000000000000000000000000000000000000000000000000000000000000000000000000000000000000000000000000001000000000000000000000000000000000000000000000008000002000000000000000000000000000000000000000000020000000000000000000800000000000000000000000010000000000000000000000000000000000080000000000000000000000004000000000000000000000000000000000000000000000000000000000000000000000000000000000002000000000002000000000000000000000000000000000000000020800000000000000000000000000000000000000000000000000000000000000000",
      "type": "0x2",
      "transactionHash": "0xbbb4480e974a2a9e60fd183bbd591c0f4c5437da520fa6137c410dea672e6035",
      "transactionIndex": "0x3a",
      "blockHash": "0x40b80db2059520273cf0a11639a2b70f8b219243bcacb7010b77c515f3d9d36a",
      "blockNumber": "0x640afe",
      "gasUsed": "0x2c64e",
      "effectiveGasPrice": "0x94c88bf99",
      "from": "0xc97ca114c952ea557f49ef605c0f3864c794b373",
      "to": "0x801a4168a67184776f5d8f609ea062d220937623",
      "contractAddress": null
    }
  ],
  "libraries": [],
  "pending": [],
  "returns": {},
  "timestamp": 1724423335,
  "chain": 11155111,
  "commit": "047c4b9"
}